:400000000080002011000000A1090000A109000080B500AF00F0CEFC80B500AF294B12221A6001F0F5FD284B180002F001F9012001F0FEFD0C2001F03BFA244B244A1A6007
:40004000244B8022D2051A60234B234A126802210A431A60214B224A1A60224B00221A60214B214A126808218A431A60FA23DB00180001F00FFB1D4B180001F02DFC1C4BB7
:40008000802212061A601B4B00221A601A4B1B4A1A60104B1A4A1A601A4B802212011A60C046184B1A6880231B011340F9D1154B802252001A60034B00221A60C046BD4671
:4000C00080BDC04630001040001BB70004010B40060000800C020B4078002E407C002E406A2D000064F02E406CF02E40DC05000008010B4000010B4008020B4000008E02E3
:400100000005004010020B4080B582B000AF72B6344B00221A60FB1D00221A7022E0FB1D1A7813005B009B185B002F4A9B183B603B681A78597809020A43997809040A4348
:40014000DB781B06134318003B681A795B791B0213439BB2190000F0FFFBFB1D1A78FB1D01321A70FB1D1B78012BD8D91F4B00221A601F4B992212041A601E4B99221204D4
:400180001A601D4B992212041A601C4A1B4B1B78DBB206210B43DBB21370194B30221A60184B902252021A60174BE02212011A60164B10221A60164B164A1A60164B802252
:4001C00092001A60154B80221A60154B802292031A60FFF721FF00F0CFFBC046BD4602B080BDC0466CF02E40E44601000000024000500F4010500F4030500F4000700F4085
:4002000000000440080004400C0004400001044008010440092000000C010440000304400803044010B5064C2378002B07D1054B002B02D0044800E000BF0123237010BDCB
:40024000C810002000000000E0460100084B10B5002B03D00749084800E000BF07480368002B00D110BD064B002BFBD09847F9E700000000CC100020E0460100E00B002053
:400280000000000080B500AF01F0C8FF01F050FFC046BD4680BDC04680B500AF01F030FF01F0B8FEC046BD4680BDC04680B500AF00F04AF802F0DCFB00F018FA1E4B1B7842
:4002C000012B1BD100F0F2F91C4B1B78012B25D11B4B1B7801225340DBB2002B0BD001F0F1FC80235B00180001F092FD01F0C0FC134B01221A7000F095F80FE0104B1B7827
:40030000002B0BD001F0DEFC80235B00180001F0AFFD01F0ADFC0A4B00221A7000F0F2FA084B1B78002BC5D0064B00221A70002000F076FCBEE7C046EB100020EA100020BD
:40034000E5100020EC10002080B582B000AF01F0EBFB62B6002001F023F8002001F05EF8002000F0E1FF062001F002F8274B1900082001F0D9F9264B180001F0F1FE254B64
:40038000180001F05FFE062000F0F2FF01F07EFB03007B607B68022B09D0032B1FD11E4B180001F073FA002000F0E2FF26E01B4B180000F0A1FB01E002F05AFB184B1B7883
:4003C000002BF9D0002000F0D3FF002001F010F8134B00221A70002000F022FC0EE0FA235B00180001F052FA002000F0C1FF062000F0FEFF01F06AFB01F010FB002000F0D6
:40040000B7FFC046BD4602B080BDC046CD0700008502000099020000B80B0000C1040000EC10002080B582B000AFFB1D144A12781A70BB1D00221A70124B1B78DBB2002BA2
:4004400019D1114B1B78FA1D12789A4213D00E4BFA1D12781A700D4BBA1D12781A700A4B1A780B4B1A70094B1A78094B5A70084B180000F0EFF8C046BD4602B080BDC04671
:400480002A22002050220020E6100020E7100020E810002080B500AF082001F0D5F9002000F066FF002000F0A3FF062000F024FF01F00CFB01F0B2FAC046BD4680BDC046ED
:4004C00080B584B000AF786039607B68272B00D1A2E00CD8022B00D1A0E002D8012B14D09FE0052B00D192E0262B12D099E0422B2AD004D8282B14D0412B19D091E04C2B4A
:4005000045D0712B00D17EE08BE0484B01221A7087E0474B1B78042B00D081E0FFF7BAFF7EE0424B01221A70424B01221A7078E0414A3B681000190002231A0002F04FFA9A
:400540003E4B01221A706CE03C4B00221A703C4B00221A703A4B1A783A4B1A70394B00225A70394B0F221A81374B364A1A60364B02229A80304A3448402300210FF0C4FC39
:40058000324B01221A702B4B01221A7049E03B68FB60FB689B890F2B26D1FB685B681B78012B03D1264B01221A7007E0FB685B681B78002B02D1224B00221A70204B1A7884
:4005C000204B1A701F4B00225A701F4B0F221A811D4B1C4A1A601C4B02229A80164A1A48402300210FF090FC134B1A785B781B021A4300231204120C1B0C1B041343180074
:400600000EF05CFA0DE0114B00221A7009E03B681A780F4B1A7004E0C04602E0C04600E0C046C046BD4604B080BDC046EC1000204C220020F00B002028220020EB1000206D
:40064000EA100020242200202C220020E40B0020F010002080B586B000AF7860114B1B78002B1BD10C23FB180E221A810C23FB187A681A600C23FB1802229A800C23F918FA
:40068000094B1A785B781B021A4300231204120C1B0C1B04134318000EF0C4F9C046BD4606B080BDF01000202822002080B500AF0A4B1B78002B0DD0094B1B78002B09D0FC
:4006C000074B00221A70074B1B78074A110018000BF084F8C046BD4680BDC046EB100020E40B002028220020E80B002080B582B000AFFB1D00221A702E4B1A782E4B1B7842
:400700009A4209D0FB1D01221A702B4B1B78032B02D12A4B01221A60274B1A78254B1A70244B1B78032B17D0042B36D0022B00D039E0FB1D1B78002B32D0FB1D00221A7027
:40074000062000F015FE1E4B01221A701D4B02221A7000F0B5F823E0184B1B685A1E174B1A60164B1B68002B1CD1174B1B78DB43DAB2154B1A70144B1B78002B06D00620AC
:4007800000F0F6FD0D4B04221A600BE0002000F0EFFD0A4B14221A6004E0FFF77BFE02E0C04600E0C046FB1D00221A70C046BD4602B080BDF10B00204C220020F40B0020CC
:4007C000EF100020EE100020F110002080B582B000AF01F0CBFB03007B607B680422134017D0042001F0D0FB314B1B78002B10D0304B1B78002B06D1002000F0B9FD2C4B66
:4008000000221A7005E02B4B1B78013BDAB2294B1A707A688023DB00134044D08023DB00180001F0B1FB244B1B78013BDAB2224B1A70214B1B78012B03D1062000F098FDF3
:4008400009E01D4B1B78002B05D1002000F090FD194BFA221A70194B00221A7001F05AFC03001A000123134002D0144B01221A7001F0C2FB031E07D1104B1B78DBB20222DD
:400880001343DAB20D4B1A7001F044FC03001A000223134007D0094B1B78DBB204221343DAB2064B1A70C046BD4602B080BDC046EF100020EE100020F80B00202A220020B6
:4008C00080B500AF01F0FEF90121002001F03CFA0121002001F066FA0321082000F04AFF082000F09BFF80231B021900002001F0F5FA012001F08CFA01F0BAF9C046BD46DB
:4009000080BDC04690B583B000AFFC1D032002F0A7F80300237072B6BC1D04F0ABF803002370FB1D1B78032B0AD1BB1D1B78042B03D0BB1D1B78062B08D101F039F805E01F
:40094000BB1D1B78022B01D001F018F862B6C046BD4603B090BDC04680B582B000AF786039603A687B680021180002F041F8C046BD4602B080BDC04680B500AF054B03221F
:400980001A60054B03221A60044B00221A60C046BD4680BD3000304030003140000E3F4080B500AF01F0E0FF03001B680C2B00D1FEE7FEE780B586B000AF224B7B61224BF3
:4009C0003B61204B7B6135E03B691B68FB603B695B68BB603B699B683B6000237B600CE0FB681A68BB681A60BB680433BB60FB680433FB607B6804337B607A683B689A428D
:400A0000EED13B69DB683B6000237B6008E0BB6800221A60BB680433BB607B6804337B607A683B689A42F2D13B6910333B617B69013B7B617B69002BC6D101F09BFFFFF79C
:400A400035FCFEE701000000944A010080B582B000AF154B144A126801218A431A6000237B600FE07B68032B04D8104B7A689200D35800E00E4B0F4A796889008B507B683B
:400A800001337B607B682F2BECD9FFF73DFB0A4B00221A60044B044A126801210A431A60C046BD4602B080BD0000104000000000A109000000000020C000002080B500AF30
:400AC000064B00221A70064B00221A70054B00221A7000F009F8C046BD4680BD57220020502200205622002080B500AF00F0FEFBC046BD4680BDC046B0B594B004AF7860B9
:400B00003E23FB1800221A802823FA183D4B1000190014231A0001F062FF3B4B1B78002B04D1FFF7CBFF384B01221A707B68002B5CD0364B7A681A603E23FB181B88002B72
:400B400029D11023FB181C22BA185A601023FB182022BA181A601023FB1800221A812023FB181B221A802023FB181B225A802023FB1804221A711C23FB1808221A703E238C
:400B8000FC180E23FA181023FB181100180002F04BF8030023803E23FB181B88002B29D13E23FC182823FD18AE231A01184919480023029300230193052300932B0001F08F
:400BC00089FF030023803E23FB181B88002B11D1114B01221A703E23FC18104B1522102118000FF079F90300238003E03E23FB1801221A803E23FB181B881800BD4610B02D
:400C0000B0BDC046F0460100F210002044220020C80000206D0F00004C2200202C47010090B585B000AF0200FB1D1A70FB1D1B78022B04D90E23FB1801221A804CE02A4BD8
:400C40001B78042B43D1294B1B78DBB21A00042313403CD1FB1D1B78002B0DD1244B3C221A82234B5B68902252001A80204B5B68A02252005A8010E0FB1D1B78012B0CD1BD
:400C80001B4B96221A821A4B5B68C822D2001A80174B5B68FA2212015A80164BFA1D12781A700E23FC18124B18000CF013FD030023800E23FB181B88002B0DD10B4B1B78FD
:400CC000DBB204221343DAB2084B1A7004E00E23FB180422FF321A800E23FB181B881800BD4605B090BDC0464C220020572200204C0C00205622002080B584B000AF786038
:400D00000A00FB1C1A700023BB60FB1C1B78002B01D1154BBB60BB68002B20D07B689A79BB681A700F23FB1800221A7012E00F23FB181B780133BA68D3180F22BA1812783E
:400D400079688A5C1A700F23FB181A780F23FB1801321A700F23FB181B78052BE7D9C046BD4604B080BDC046200C002080B582B000AF78607B681B789AB27B6801331B78DB
:400D80009BB21B029BB213439BB21800BD4602B080BDC04690B585B000AF78600F23FB1800221A707B689B890B22934232D17B68181D7A680F23FC18402300210FF0A4F86C
:400DC000030023700F23FB181B78002B1AD17B685B681800FFF7CAFF03001A00022313409BB2002B07D00F4B1B687968822252001000984706E00B4B1B6879680622FF3272
:400E000010009847084B1B78DBB201229343DAB2054B1A700F23FB181B781800BD4605B090BDC046442200205722002090B585B000AF78600F23FC187B681800FFF7AAFFF6
:400E400003002370154B1B78DBB21A00012313401FD10F23FB181B78002B16D00823FB1812229A707B689A890823FB181A800823FB180F22BA181278DA700823FA187B6863
:400E8000110018680DF090FD03E07B6818680DF015FEC046BD4605B090BDC0465722002080B582B000AF7860C046BD4602B080BD80B500AF044B00225A70034B00221A7018
:400EC000C046BD4680BDC0465422002080B582B000AF7860C046BD4602B080BD80B500AFC046BD4680BDC04680B584B000AF78600E23FB1800221A707B689B79002B1CD10B
:400F00000F23FB1800221A7012E00F23FB181B787A68D35C002B04D00E23FB1801221A700BE00F23FB181A780F23FB1801321A700F23FB181B78052BE7D90E23FB181B7892
:400F40001800BD4604B080BD80B582B000AF0200BB1D1A80C046BD4602B080BD80B582B000AF7860C046BD4602B080BD80B588B000AF02003960FB1D1A70CD4B1B78DBB26C
:400F800001221343DAB2CA4B1A70FB1D1B78712B00D96BE19A00C74BD3181B689F461023FB1807221A701023FB1800225A701023FB18180003F0BEFD1023FB1807221A70F2
:400FC0001023FB1801225A701023FB18180003F0B1FD0023002B01D001F03EFDB64B1B681800FFF781FF031E11D0B34B1B68180001F042FDB04B1B6800211800FFF77CFE70
:40100000AD4B1B6801211800FFF776FE36E0AB4B1B781A003F231A40A94B1B789901FC231B010B401A43A74B1B781903F8235B020B401A43A44B1B785904FE231B040B40ED
:401040001343BB61BB69DAB2A04B1A70BB691B0ADAB29E4B5A70BB691B0CDAB29B4B9A709A4B180001F008FD984B00211800FFF743FE964B01211800FFF73EFE03200CF0D8
:40108000BBF90C23FB183F221A700C23FB1800225A700C23FB1818000CF0CCF98C4B04221A70EAE03B681800FFF710FFE5E03B681A78884B1A70E0E03B687B617B691B78E8
:4010C000002B00D0D4E07B695B78002B0BD1824B0222DA80804B18229A807F4B7F4A1A607B697D4A5A60724B1B78DBB201229343DAB26F4B1A70BBE06D4B1B78DBB21A0074
:401100002023134000D0B5E0754B1B78102B02D1734B0522DA70734B1B78714A110018000CF096FA03001A000A23FB181A800A23FB181B88002B06D06B4B1B680A22BA1851
:401140001100362098475A4B1B78DBB201221343DAB2574B1A708DE03B681800FFF7FEFE8BE03B681800FFF7F9FE594B02221A7083E0574B04221A707FE0554B1B78022B40
:4011800000D179E04A4B1B78DBB21A000123134000D171E0464B1B78DBB21A00042313400BD04B4B03221A70414B1B78DBB204229343DAB23E4B1A705EE03D4B1B78DBB20B
:4011C0001A00082313400BD0414B04221A70384B1B78DBB208229343DAB2354B1A704BE03B4B1B78032B47D1394B04221A7043E03B681B881800FFF7A7FE3EE0394A3B68E9
:401200001000190002231A0001F0E9FB314B00221A70FFF763FE30E0FFF74AFE2DE03B685B88172B05D81E23FB183A6852881A8003E01E23FB1818221A801E23FB18198888
:401240003B681A8800231204120C1B0C1B04134318000DF0B3FB10E03B681800FFF7E6FD0BE03B681800FFF71BFE06E0C04604E0C04602E0C04600E0C0460D4B1B78DBB21E
:401280001A00112313400ED0094B1B78DBB201229343DAB2064B1A70134B1B68FA1D1278396810009847C046BD4608B080BDC0465722002078480100680C00207CF2FF0F5B
:4012C0007DF2FF0F7BF2FF0F78F2FF0F600C00204C22002050220020F4100020A80B0020F00C0020542200204422002080B500AFC046BD4680BDC04680B582B000AF02005B
:40130000FB1D1A70064B064A126806491140FA1D127852050A431A60C046BD4602B080BD08030440FFFF1FFF80B584B000AF0200FB1D1A700D4B1B68DAB20F23FB187F2126
:401340000A401A70FB1D1B78DB01D9B20F23FB180F22BA1812780A431A70044B0F22BA1812781A60C046BD4604B080BD0003044080B582B000AF0200FB1D1A70074B074AEA
:40138000126838218A431100FA1D1278D2000A431A60C046BD4602B080BDC0460801044080B584B000AF0200FB1D1A700F4B1B68DAB20F23FB1802218A431A70FB1D1B7868
:4013C000DB18DBB202221340D9B20F23FB180F22BA1812780A431A70044B0F22BA1812781A60C046BD4604B080BDC0460001044080B582B000AF0200FB1D1A70064B064ACC
:40140000126807218A431100FA1D12780A431A60C046BD4602B080BD0801044080B584B000AF0200FB1D1A700E4B1B68DAB20F23FB1801218A431A70FB1D1B78012213407C
:40144000D9B20F23FB180F22BA1812780A431A70044B0F22BA1812781A60C046BD4604B080BDC0460001044090B585B000AF78600F23FC1800F0E5FE030023700A4B7A68B6
:40148000D104E02292031140074A1268074802400A431A600F23FB181B78180000F0D5FEC046BD4605B090BD00010B40FFFFC7FF90B585B000AF78600C23FC1800F0C1FE8B
:4014C000030023707B68022B00D8AFE07B68302B00D9ABE05C4B1B78DBB21A007B689A420AD35A4A0F23FB1812781A70584A0E23FB1812781A703FE0564B1B78DBB21A00CF
:401500007B689A420AD3544A0F23FB1812781A70524A0E23FB1812781A702DE0504B1B78DBB21A007B689A420AD34E4A0F23FB1812781A704C4A0E23FB1812781A701BE0CC
:401540004A4B1B78DBB21A007B689A420AD3484A0F23FB1812781A70464A0E23FB1812781A7009E0444A0F23FB1812781A70434A0E23FB1812781A707B68DA1E0B23FB185C
:401580003F498A5C1A700B23FB181B782F2B0DD97B682A2B0AD93B4B19221A60052000F047FE0D23FB1819221A7007E0354B1B68DAB20D23FB183F210A401A700B23FA183A
:4015C0000D23FB1812781B789A4208D22D4B7A68033A2B498A5C1A60052000F029FE2A4B7A6826498C4662441278D2B21A60274B0F22BA1812781A60254B0E22BA181278F3
:401600001A60052000F068F90B23FA180D23FB1812781B789A420CD91A4B7A68033A18498A5C1A60052000F003FE02E0002000F021F90C23FB181B78180000F006FEC0460B
:40164000BD4605B090BDC04640F3FF0F41F3FF0F42F3FF0F43F3FF0F44F3FF0F45F3FF0F46F3FF0F47F3FF0F48F3FF0F49F3FF0F4AF3FF0F4BF3FF0F4CF3FF0F4DF3FF0F76
:40168000404A01002CFF0B4028FF0B401CFF0B4020FF0B4080B584B000AF78600023FB60154B154A126801210A431A60134B144A1A60144B134A1268802109020A431A6078
:4016C0007B68002B12D01023FB600CE0012000F003F900F019F8031E02D00023FB6005E07B68013B7B607B68002BEFD1FB681800BD4604B080BDC04660F02E4078002E403B
:401700000220000010002E4080B582B000AF054B1B68012213407B607B681800BD4602B080BDC0460C002E4080B584B000AF02003960FB1D1A7080239B05FB60FB1D1B78C4
:401740001F2B02D9002000F095F8FB1D1B7810339B00FA68D3181B68BB60FB1D1B7810339B00FA68D3183A681A60BB681800BD4604B080BD90B587B000AF0200FB1D1A7043
:40178000BB1D0A1C1A70BB1D1B78032B02D9002000F070F8FB1D1B781F2B02D9002000F069F8FB1D1B7803221340DB0006337B611323FC1800F045FD03002370FB1D1B78A4
:4017C0009B08DBB29B00144A944663441B68FB6003227B699A401300DA43FB681340FB60BB1D1A787B699A401300FA681343FB60FB1D1B789B08DBB29B00074A94466344A7
:40180000FA681A601323FB181B78180000F01DFDC046BD4607B090BD00E400E080B582B000AF0200FB1D1A70064BFA1D12781F210A40012191400A001A60C046BD4602B095
:4018400080BDC04600E100E080B582B000AF0200FB1D1A70064BFA1D12781F210A40012191400A001A60C046BD4602B080BDC04680E100E080B582B000AF0200FB1D1A70BE
:4018800001BEC046BD4602B080BDC04680B582B000AF786009E00D4B1B68180000F0C8FC7B680B4A944663447B607A6880231B029A42F0D8074B1B687A685343180000F0BE
:4018C000B7FCC046BD4602B080BDC046040D00200080FFFFFC0C002080B582B000AF0200BB1D1A80BB1D1B88044A12785343180000F09EFCC046BD4602B080BD000D002026
:4019000080B500AF164B164A1268920092081A60144B144A1268920092081A60124B124A1268920092081A60104B104A1268920092081A600E4B0E4A1268920092081A6086
:401940000C4B0C4A1268920092081A600A4B0A4A1268920092081A60C046BD4680BDC0460800044008010440080204400803044008040440080504400806044090B583B0E4
:4019800000AFFC1D00F05DFC03002370074B074A126804218A431A6030BFFB1D1B78180000F053FCC046BD4603B090BD10ED00E090B583B000AFFC1D00F043FC030023701B
:4019C000114B114A1268520052081A600F4B104A128892B21A600F4B0E4A126804210A431A600D4B1B683B600220FFF73DFD30BF094B3A681A60FB1D1B78180000F025FC71
:401A0000C046BD4603B090BD00000B400C000B4052F2FF0F10ED00E000010B4090B583B000AFFC1D00F00DFC03002370FFF768FF114B114A1268802109060A431A600F4B52
:401A40000F4A128892B21A600E4B0E4A126804210A431A600C4B0C4A1268FF218A43F1210A431A6030BFFB1D1B78180000F0EDFBC046BD4603B090BD00000B400C000B407C
:401A800050F2FF0F10ED00E02C000B4080B582B000AF00237B600C4B1B68FF221340F12B07D0F22B08D0002B00D008E001237B6005E002237B6002E003237B60C0467B68A5
:401AC0001800BD4602B080BD2C000B4090B583B000AFFC1D00F0B5FB030023700F4B1A6880239B0213400FD10C4B0C4A12680C490A400C490A431A60084B1B68074B1B6813
:401B0000064B064A12681A60FB1D1B78180000F09CFBC046BD4603B090BDC0462C000B40FF000100003A028090B583B000AFFC1D00F087FB030023700D4B0D4A12680D49BD
:401B40000A40E82189010A431A60094B1B68084B1B68074B064A126806490A401A60FB1D1B78180000F071FBC046BD4603B090BD2C000B40FF00010080B500AF0F4B0F4AAF
:401B8000126801218A431A600C4B0C4A126802218A431A600A4B0A4A126830218A4310210A431A60064B064A126807218A4301210A431A60C046BD4680BDC04600F02E40D5
:401BC00000FF2E4080B500AF0F4B0F4A126802218A431A600D4B0D4A126807218A4302210A431A60094B094A126830218A4320210A431A60044B044A126801210A431A60AE
:401C0000C046BD4680BDC04600F02E4000FF2E4080B500AFFFF7B0FF044B044A1268802109060A431A60C046BD4680BD00F02E4080B584B000AF78600C4B1B680122134092
:401C4000FB607B68002B02D0012B03D005E0FFF793FF06E0FFF7B6FF03E00020FFF70AFEC046FB681800BD4604B080BD00F02E4090B583B000AFFC1D00F0E3FA03002370B5
:401C8000074B074A1268C02109020A431A60FB1D1B78180000F0D9FAC046BD4603B090BD00010B4080B500AF054B1A68C0231B02134001D0012300E000231800BD4680BD20
:401CC00000010B4090B583B000AFFC1D00F0B9FA030023700D4B0D4A12680D490A408021C9010A431A60094B084A126808490A40802109020A431A60FB1D1B78180000F043
:401D0000A4FAC046BD4603B090BDC04600010B40FF3FFFFF80B582B000AF78607B68022B02D90020FFF7A6FD064B1A687B68DB000133DA401300012213401800BD4602B0A7
:401D400080BDC04610020B4080B584B000AF786039607B68022B02D90020FFF78BFD7B681800FFF7D7FF031E16D10D4B1B687A68D200032191400A00D2431340FB603B68EE
:401D800003221A407B68DB009A401300FA681343FB60034BFA681A60C046BD4604B080BD0C020B4080B584B000AF786039607B68002B02D07B68012B01D1012300E00023F8
:401DC000002B02D10020FFF755FD7B681800FFF7A1FF031E16D10D4B1B687A68D2000232012191400A00D2431340FB607B68DB0002333A689A401300FA681343FB60034B7E
:401E0000FA681A60C046BD4604B080BD0C020B4080B582B000AF7860144B144A11687A680A431A607B680122134005D0C0460020FFF770FF031EFAD07A6880235B001340CF
:401E400005D0C0460120FFF765FF031EFAD07A6880235B02134005D0C0460220FFF75AFF031EFAD0C046BD4602B080BD10020B4080B582B000AF7860FFF714FF031E26D151
:401E8000154B154A12687968C9430A401A607B680122134005D0C0460020FFF73BFF031EFAD17A6880235B00134005D0C0460120FFF730FF031EFAD17A6880235B02134053
:401EC00005D0C0460220FFF725FF031EFAD1C046BD4602B080BDC04610020B4080B584B000AF786039607B68002B02D07B68012B01D1012300E00023002B02D10020FFF7FF
:401F0000B9FC174B1B689B0F9B0701D1C92300E05D231800FFF7E0FC124B1B68FB607B681B01114A9A401300DA43FB681340FB600C4B7A68120139689140FA680A431A601C
:401F4000074B1B689B0F9B0701D1432300E01F231800FFF7C1FCC046BD4604B080BDC0460C020B4008020B40FFFF000080B500AF034B1B68034A13401800BD4680BDC046BC
:401F800010020B400404040090B585B000AF78600B23FC1800F055F903002370FFF782FE031E04D00123FB60FFF78CFE01E00023FB607B680D4A13407B600D4B0C4A126848
:401FC0000C4911407A680A431A60094B1B68FB68012B01D1FFF74CFE0B23FB181B78180000F033F9C046BD4605B090BD0404040010020B40FBFBFBFF80B500AF044B1B68F8
:40200000102213401B09DBB21800BD4680BDC0460401044080B582B000AF094B1B68DAB2FB1D10210A401A70054BFA1D12781A60FB1D1B781B09DBB21800BD4602B080BD5C
:402040001001044080B582B000AF786000F04EF87B68180000F00AF8032000F015F800F03BF8C046BD4602B080BDC04680B582B000AF7860034B7A685A64C046BD4602B022
:4020800080BDC0460000002090B585B000AF0200FB1D1A700E23FB600B23FC1800F0D1F8030023700A4B0A4A12680A491140FA1D1078FA68904002000A431A600B23FB1831
:4020C0001B78180000F0C1F8C046BD4605B090BD00E400E0FF3FFFFF80B500AF024B02221A60C046BD4680BD00E100E080B500AF024B02221A60C046BD4680BD80E100E055
:4021000080B500AF024B02221A60C046BD4680BD80E200E080B500AF044B1B68302213401B09DBB21800BD4680BDC0460400044080B582B000AF094B1B68DAB2FB1D3021B4
:402140000A401A70054BFA1D12781A60FB1D1B781B09DBB21800BD4602B080BD1000044080B582B000AF786000F04EF87B68180000F00AF8032000F015F800F03BF8C0460C
:40218000BD4602B080BDC04680B582B000AF7860034B7A681A64C046BD4602B080BDC0460000002090B585B000AF0200FB1D1A700623FB600B23FC1800F043F80300237019
:4021C0000B4B0B4A1268C0218A431100FA1D1078FA68904002000A431A600B23FB181B78180000F032F8C046BD4605B090BDC04600E400E080B500AF024B01221A60C046B2
:40220000BD4680BD00E100E080B500AF024B01221A60C046BD4680BD80E100E080B500AF024B01221A60C046BD4680BD80E200E00230800803D00138FDD1C046C046C0464C
:402240007047EFF3108072B6704780F31088704780B582B000AF78600A00BB1C1A80BB1C1A887B681A60C046BD4602B080BDC04680B582B000AF78600A00BB1C1A80BB1C17
:402280001A887B681A60C046BD4602B080BDC04680B584B000AF494B1B78DBB21B02484A1278D2B21343FB60464B1B78DBB21B02454A1278D2B21343BB60BB68434A934286
:4022C00007D1FB68072B04D1414BBB600423FB6009E0BA68D4231B019A4204D1FB68042B01D13B4BBB603B4BBA681A603A4BFA681A603A4B1B78DBB21B02394A1278D2B2C9
:402300001343FB60FA6880239B019A4202D0FB68002B01D1334BFB60334BFA681A60334B1B78DBB21B02324A1278D2B21343FB60FB68304A934206D0FB682F4A934202D009
:40234000FB68052B01D12D4BFB602D4BFA681A602C4B1B681B097B602B4B1B68AA2B29D17B68012B26D9214B1B78DBB20E2B21D1264B1B78DBB29BB21B0299B2244B1B7803
:40238000DBB29AB2BB1C0A431A80224BBA1C12881A60214B1B78DBB29BB21B0299B21F4B1B78DBB29AB23B000A431A801C4B3A0012881A60C046BD4604B080BD59F1FF0FEF
:4023C00058F1FF0F5FF1FF0F5EF1FF0F580B0000580D00006C002E4074002E405BF1FF0F5AF1FF0F0220000078002E405DF1FF0F5CF1FF0F0F0F000005050000050F000099
:4024000080002E40EC0F00F0E00F00F06DF2FF0F6CF2FF0F84002E406FF2FF0F6EF2FF0F94002E4080B582B000AF0200BB1D1A80BB1D1B881800FFF74FFAC046BD4602B023
:4024400080BDC04680B582B000AF78607B681800FFF71CFAC046BD4602B080BD80B500AF00F0ECF8C046BD4680BDC04680B500AF00F0F0F8C046BD4680BDC04680B500AF3C
:4024800000F0E8F8044B180000F0A2F8022000F0ADF8C046BD4680BD6D26000080B500AF034B180000F080F8C046BD4680BDC0466D26000080B500AF014B1800BD4680BDB2
:4024C0000202000080B582B000AF78602B231800BD4602B080BDC04680B582B000AF78602B231800BD4602B080BDC04680B582B000AF78602B231800BD4602B080BDC046F4
:4025000080B582B000AF78602B231800BD4602B080BDC04680B582B000AF78602B231800BD4602B080BDC04680B582B000AF78602B231800BD4602B080BDC04680B582B050
:4025400000AF78602B231800BD4602B080BDC04680B582B000AF78602B231800BD4602B080BDC04680B500AF2B231800BD4680BD80B582B000AF0200FB1D1A702B23180080
:40258000BD4602B080BDC04680B582B000AF786039602B231800BD4602B080BD80B500AFC046BD4680BDC04680B582B000AF786000F050F87B68180000F00AF8022000F0EF
:4025C00015F800F03BF8C046BD4602B080BDC04680B582B000AF7860034B7A681A67C046BD4602B080BDC0460000002090B585B000AF0200FB1D1A700623FB600B23FC185D
:40260000FFF71FFE030023700B4B0B4A1268C0218A431100FA1D1078FA68904002000A431A600B23FB181B781800FFF70EFEC046BD4605B090BDC0460CE400E080B500AFC0
:40264000034B802252011A60C046BD4680BDC04600E100E080B500AF034B802252011A60C046BD4680BDC04680E100E080B500AF12F022F8C046BD4680BDC04600224308A9
:402680008B4274D303098B425FD3030A8B4244D3030B8B4228D3030C8B420DD3FF22090212BA030C8B4202D31212090265D0030B8B4219D300E0090AC30B8B4201D3CB0374
:4026C000C01A5241830B8B4201D38B03C01A5241430B8B4201D34B03C01A5241030B8B4201D30B03C01A5241C30A8B4201D3CB02C01A5241830A8B4201D38B02C01A52419F
:40270000430A8B4201D34B02C01A5241030A8B4201D30B02C01A5241CDD2C3098B4201D3CB01C01A524183098B4201D38B01C01A524143098B4201D34B01C01A52410309AC
:402740008B4201D30B01C01A5241C3088B4201D3CB00C01A524183088B4201D38B00C01A524143088B4201D34B00C01A5241411A00D20146524110467047FFE701B5002003
:4027800000F0F0F802BDC0460029F7D076E7704703460B437FD4002243088B4274D303098B425FD3030A8B4244D3030B8B4228D3030C8B420DD3FF22090212BA030C8B42AB
:4027C00002D31212090265D0030B8B4219D300E0090AC30B8B4201D3CB03C01A5241830B8B4201D38B03C01A5241430B8B4201D34B03C01A5241030B8B4201D30B03C01AD1
:402800005241C30A8B4201D3CB02C01A5241830A8B4201D38B02C01A5241430A8B4201D34B02C01A5241030A8B4201D30B02C01A5241CDD2C3098B4201D3CB01C01A524120
:4028400083098B4201D38B01C01A524143098B4201D34B01C01A524103098B4201D30B01C01A5241C3088B4201D3CB00C01A524183088B4201D38B00C01A524143088B4286
:4028800001D34B00C01A5241411A00D201465241104670475DE0CA0F00D04942031000D34042534000229C4603098B422DD3030A8B4212D3FC22890112BA030A8B420CD343
:4028C000890192118B4208D3890192118B4204D389013AD0921100E08909C3098B4201D3CB01C01A524183098B4201D38B01C01A524143098B4201D34B01C01A524103090B
:402900008B4201D30B01C01A5241C3088B4201D3CB00C01A524183088B4201D38B00C01A5241D9D243088B4201D34B00C01A5241411A00D20146634652415B10104601D321
:402940004042002B00D54942704763465B1000D3404201B5002000F005F802BD0029F8D016E770477047C046014B18687047C046C41000200E4B70B500251E000D4CE41AB1
:40298000A410A54204D0AB00F35898470135F8E712F06EF8084B00251E00084CE41AA410A54204D0AB00F35898470135F8E770BD7C4A01007C4A01007C4A0100844A0100C4
:4029C00030B50024A24208D0035D651C0C5DA34201D0181B02E02C00F4E7002030BD002310B59A4203D0CC5CC4540133F9E710BD03008218934202D019700133FAE7704798
:402A0000134A1088810703D08107890F401A001D11791030484381B25088820703D08207920F801A001D800040180A494030098980B2CA0701D0503080B2890706D50449A7
:402A40005422091F09785143081880B270470000120D00200811002010B501F065FF10BD10B501F067FF10BD10B501F079FF10BD10B500F05BFA10BD10B5074904460978A0
:402A80000220002907D1204601F0C2FF002802D120460AF0C3FD10BDB00E002070B504460120002C12D02368002B0FD0616800290CD0074D06222889208118462968FFF761
:402AC0008EFF6968606809780170002070BD000008110020FFB585B0002768460E9D07734F481C460078002802D0082009B0F0BD10990F9801900095029105A807C800F0E7
:402B000007F90028F2D16946264603AB84460873002C19D0002115E08A00B75A082F09D990198078002805D0083FB7521878401C187005E0002914D00027B7529019877099
:402B4000491CC9B2A942E7D360460028CED10F98002809D0109901F097FA002804D00120C4E701208446EFE701F0FAFE2D480021416081600599016021888180022D07D354
:402B8000A1798171A17AC171A1890181218A418100211EE0481C19E082008B00A75AE65ABE46BE4211D26F463E80B4461E190296B678BE7001967646E6521719029EBB78CC
:402BC000B3706646A652019EBE70401CA842E3D3491CA942DED3134822460C3000906846037B0799069800F01BF90028B8D168460B4C007B60700B480C3001F0E1FE0028BF
:402C0000AED1084907480C3107F09CFC0028A7D107F0B6FC0028A3D10121217066E700000C0D0020FC100020F8B5054636480F460078002802D002242046F8BD002F60D082
:402C400000243249002D16D02A89D0070DD02868002808D003881B3BE12B04D24088FB2801D81B2801D2012409E0900707D56868002804D1F7E70020088108604860002CFD
:402C8000DAD122482E8906811F481B21801D01804180042101711C490020891C0870F00705D019480622801D2968FFF798FE1749B00703D56A68144812788270124D0E46AB
:402CC000AD1D281F0D60486001F0C8FE284601F0B7FE30890EF050FA30890DF041FC28880DF044FC30890EF0B1FB03461033FFF787FE1F21C018890140183880A91F888016
:402D00009AE7012498E700000C0D002008110020FFB58446384F1C460020BB883F78054602460646002F11D100290ED0029999420BD36146002908D0002C06D00A990029BA
:402D400006D02E4B0B99994202D2012004B0F0BD002144E0AB001F19BF78002F3BD0E35A002B38D07B43591889B22B0000F04AF8050410161C253100A7782388BC46FF27CC
:402D8000233BEB37BB4222D26346032B1FD322E0A388002B1FD0302B19D31CE02389002B19D0282B13D316E0A289002A13D01346134F233BBB420AD20DE0268A002A0AD095
:402DC00033460F4F233BBB4201D2964203D901200EE0002001E000280AD16D1CEDB2099B9D42B7D31C2463435B1802998B42ACD89642AAD8AAE700000C0D002079020000EE
:402E0000BAFF000030B47446641E2578641CAB4200D21D46635D5B00E31830BC18470000FFB583B0002469460C801F4606468C80002806D00598002803D0049830438007EA
:402E400001D0012466E0002FFBD03449049809888842F6D3FFF722FBFFF708FB00F012FC002855D100F07AFD002851D12C49084601F03EF905042D0C4AD12A480499066019
:402E800081800021C18007810C98007AC00704D0684601F07EFD040007D10C98007A800703D501A801F07EFD0446BF1DFEB2002C20D13146059800F05DF804001AD10EF0AD
:402EC000D3FA040016D16A461088928808368518144AF1B29088D288AEB29319984207D3401B801A80B201F0F3FB050007D000E0FF25012400F05EFA002D04D008E0F8B2C4
:402F000000F01CF9F6E700F081FA07490120087000F0CAFB204607B0F0BD0000100D00206130000014110020180D002010B503480078012801D101F06DFA10BD180D002097
:402F400070B5084B0446DA889E8800205518B54206D81D68AA182260DA885118D98070BD032070BD14110020014800897047000014110020F0B587B007460D460020890003
:402F8000009006916846FFF7DBFF844600285DD1304800990160002117E02E4B88001A680629115406D22C4C0419667882185670628805E0C419203CA67A821856702289CD
:402FC0001B68C018491C4280C9B2A942E5D300242DE0601CC2B2059025E01E4FA30039689600581840887118039604904E88B04217D938466F46FE80B6464F786E46777179
:403000000297049F4F800168039F5E18767879184E700168764659184E800068029F18184770521CD2B2AA42D7D30598C4B2AC42CFD36046002809D168460699FFF780FFDE
:403040008446002802D1054900980860604607B0F0BD00001C0D0020A84A0100200D00207047000010B5002809D005494A68002A05D0011F08788000105801F0D7FA10BD17
:403080001C0D002010B50446FFF76EFFC0B2801DA0420CD307484068002808D0A100405801F036FA002801D00470001D10BD002010BD00001C0D0020F8B516460D46044601
:4030C000FFF752FFC0B2801DA04203D20020C0430090F8BDB2B2E9B2684601F03FFA0099481C03D0024AA000526811500098F8BD1C0D0020F8B50746FFF736FF801DC6B2DD
:403100000A49002005460C680DE06178002907D06188B94202D32078FFF7B4FF002804D1241D6D1CEDB2B542EFD3F8BD1C0D002010B5002801D0FFF795FF10BD70B50646FA
:403140000948002504680BE06178002905D062882078121D0023FFF7AFFF241D6D1CEDB2B542F1D370BD00001C0D0020FFB581B00A9F16000C4620D000F0F2F80546042862
:403180001BD0002F0CD03846FFF7B4FF20492A0151184860002810D03A460499FFF71FFC1B4928010E504618778101980570200406D47D20C000444304E0FF2005B0F0BD81
:4031C0006404640C00F0BAF80746042807D000F04FFAA0420BD800F04BFA201A03E0204600F0AAFA0020F06035720020E6E700F03FFA009000F0B6FA00980121001B0090F9
:4032000000F0ECF802493A0151180098C860E6E720110020F8B5060116483418217A042903D0E068002802D017E00020F8BD00F01FFA054600F096FA00F0A0F804280CD082
:4032400001010C480F18F8680021451900F0C6F80020F860284600F06FFA6068054D002801D0FFF765FF042020720020A8516081E060DAE720110020FEB500266A46304697
:4032800001232549050169180D7A042D02D0C96800291BD000211154401CC0B20428F0D300246846005D002830D01B48210108184189476805680291002101604160042225
:4032C00041810272C160002E02D015E01354E3E700F054F804280ED001010F4808180190C6680021304600F079F801980021C160304600F021FA0126002D07D0384602993B
:40330000A847002F02D03846FFF712FF641CE4B2042CC6D3FEBD0000201100200EB5002005216A460090118150810348694600680EF0FFFE0EBD0000240D0020074A002097
:40334000010189180B7A042B02D0C968002903D0401CC0B20428F3D370470000201100200549002002015218127A042A03D0401CC0B20428F6D370472011002030B50A4BC2
:4033800004200A4C00210A011219157A042D06D0D268002A03D09A4201D808461346491CC9B20429EFD330BDFFFF0000201100207047000030B50020074C05460423020184
:4033C00011190B72A5504D60401C4D81C0B2CD600428F4D330BD00002011002030B5094C00231A011219157A042D04D0D568002906D02D18D5605B1CDBB2042BF1D330BDB9
:403400002D1AF7E720110020002070471CB5002469460C70142001902346054A05480EF08DFE04480068401C00D1FF2420461CBD89340000240D00203EB5124A0146FF20C6
:4034400000230124126800290DD0012914D0042908D104206946009308814B8110460EF068FE80B23EBD6846009304814381694610460EF059FEF4E7684600930481438185
:403480006946EBE7240D002070B545890468416800890300FFF7B6FC08280509091E22282628002005F00AFF1EE0022908D0C8B22A4621460CF0A0FF2046FFF739FE13E070
:4034C00002202A4621460CF097FF2946204600F00DF809E000200EF02BFB05E02046FFF7CBFE01E0FFF75AF8002070BD014B0022DB681847280D002070B54489056800897D
:40350000022803D0032809D0FF2070BD2246094C0023A46829460120A04708E0FFF7A4FA241DA2B200232946022006F0BEFE002070BD0000280D00207047000002480021A0
:403540004160018041807047280D002070B50C46002186B016460391012802D0022859D116E003A9012006F0F5FE01281BD1039D324621462846FFF732FA009528780190B9
:403580000220694608814E816846FFF7B5FF41E0214D002B686809D0049004A9022006F0D9FE01281DD0022006B070BD002812D0298840182146FFF712FA288800248019F3
:4035C00080B228806988091D884206D12C801348FFF792FF03E00320E6E788421AD96C6018E004986860E278A378110219430B4A698000231060E3565360032313815181C6
:40360000A1788170E178C1706178417021780170042028800020C7E7280D0020601100203EB515460C46022803D004280CD000203EBD0091019002206946088107484A818C
:4036400000680EF076FD07E00CF0D6FE044B0022DB6829462046984701203EBD240D0020280D0020014AD16090607047280D0020034801688068081A0A21484300097047E4
:403680006C11002010B5FEF7F9FE482204490548FFF7A5F903490120C870002010BD0000C44A01007015002010B5FEF7D7FE10BD70B5134C2368002B08D0207B1149C207B2
:4036C00005D04008400020738868A08070BD88680B4AA18880B29268814203D90A4D691A091802E0814202D2411A5118A160A080A0689842EAD30EF039FD00F013F870BD10
:403700006C110020C0102E40FFFF000010B508461946FFF7A7FF10BD704710B5FFF780FF10BD000003480021016041608160C160704700006C110020024610B5FF20002AFD
:403740000CD0FFF7EFFF064C0321207B0843207310010A21FFF718F82060002010BD00006C11002000B504480A21806848430209FFF7D8FF104600BD6C1100200248007B62
:403780008007C00F704700006C11002010B54B490868002802DA4A4B01221A70022290430860484800694549C00B4031096A0246C907C90F0A4259D0012000F0EDFA3F48D7
:4037C0000E216C30FEF754FD3E4820218430FEF74FFD3C4814219C30FEF74AFD3948FF21C131A430FEF744FD3648FF212F31B030FEF73EFD33483449BC30FEF739FD314808
:403800003249AC30FEF734FD30492E48491CB430FEF72EFD2B482E49B830FEF729FD29482C49CC30FEF724FD26482B490830FEF71FFD24482949A830FEF71AFD2148284907
:403840008830FEF715FD1F4826498C30FEF710FD1C481921C9029030FEF70AFDFEF718FDFEF728FEC0B2022812D01FE000290BD0002101420AD0114801216030FEF7F8FCF8
:403880000120FEF7DFFD97E70121F2E7FF2010BD15491648FEF7ECFC14481549001DFEF7E7FC124800210830FEF7E2FC54200449C043891C0870002010BD000000F02E40B7
:4038C000380D002000002E40320300002F3F00003102000010520000EC160000FA12000031D000003AE300009956000080012E40F80F000070B50646581C80B245086D00DB
:40390000002408E0304600F0C1F81055000A1119A41C4870A4B2AC42F4D3D80705D0D0182038D15CC47FD454C17770BD30B50A4C002100195B1E07E0541864782502545C5B
:403940002C430480891C89B29942F5DB994201D1515C018030BD000000102E4010B5FF2000F01AFA0F49FF2048700E481021801D41800121417001700A490020C91C487033
:40398000FFF704FF04000AD100F02EF907210648FEF75EFC044807211830FEF759FC204610BD0000380D0020CC112E4070B5002405465B1E0AE0284600F068F8010A16197B
:4039C00071702D1D1055A41CADB2A4B29C42F2DB9C4203D1284600F059F8105570BD000070B500210A4D5B1E0AE0541864782602545C344346193480001D891C80B289B24B
:403A00009942F2DB994202D1515C4019018070BD00102E40F0B50599091FCFB200217E1E0BE0541864782502545C2C43164D45192C80001D891C80B289B2B142F1DBFC077E
:403A400012D01C78515C24020F4A0C4381180C809C785D78001D210280B2294384182180001D80B2D9780CE059781A7809021143054A84182180001DD9789B78090280B294
:403A8000194380180180F0BD00102E40014940180088704700102E4010B50B490020487000F0A2F8002000F09DF9002000F08AF907210648FEF7CCFB044807211830FEF770
:403AC000C7FB002010BD00003B0D0020CC112E4010B50C48007801280FD100F091FF00F0DDF8002804D10848016A490849000162054802213030FEF7BBFB02490020C91E03
:403B0000087010BD3B0D002040F02E4010B50B46062812D006DC01280CD0032801D1FFF7BBFF10BD0A28FCD00B28FAD105480078107010BDFFF712FF10BD1146184600F02C
:403B40006DF910BD3E0D0020F8B5244DAC6A0127A007234E002816DA307806280ED1286A384328621F480069F903084381B21D481030FEF77DFB042000F00EF917480221D6
:403B80002830FEF765FBE00718D000F07BFF01280FD1002000F0C8FF062000F0FDF81049FF20C91E48707078002802D1686B384368630A4801212830FEF74AFBE0050BD556
:403BC0003078042802D1052000F0E6F80348FF2101312830FEF73CFBF8BD000040F02E403B0D002000002E4010B503212348FEF73FFB0120FEF716FC20483038406A204C50
:403C000080076178800F890001431C480C38FEF72FFB6078002808D0401E022181401820FEF79CFEC000083800E0B82081B21548FEF71EFB1348032109021438FEF718FBEC
:403C400010481149B830FEF713FB612189010F48FEF70EFB0D480321001FFEF709FB0C490C48FEF705FB0B480B496038FEF700FB084801218838FEF7FBFA10BD70F02E4031
:403C80003E0D0020D8102E4090890000041E2E40FF0F000058122E4020900000044800684007400F022801D0002070470120704700010B4000B5FFF7F1FF002805D00948DB
:403CC0000168C908C900016000BD0748016A490849000162054801690122D2039143016100BD000000010B4040F02E4000002E400849087806280BD148780749002803D10B
:403D0000486B400840004863C86A01221043C862704700003B0D002040F02E4001480078704700003B0D002002484078022800D001207047380D002000B50300FFF762F8ED
:403D4000080D050D0B070507090D012000BD032000BD042000BD022000BDFF2000BD0000074A9168D26889B2064B92B2994204D105498A4201D1012100E000210170704753
:403D800080002E4033D000003FE3000001494870704700003B0D002010B50446FEF766FB072C01D9FF2C01D102480470FEF756FB10BD00003B0D002001494870704700006E
:403DC000380D002010B5064A012805D01921C9021046FEF74DFA10BD1D21C902F8E7000090002E4010B50A4A141D012808D009491046FEF73DFA08492046FEF739FA10BD36
:403E000004491046891CFEF733FA0349491DF3E788002E4031D000003AE3000070B50C460546FEF747FBC0B202280E49287804D0FF2810D04C280CD810E0FF2809D10A4A74
:403E4000D0680004800F032801D0087807E09069000A553803E00878207070BD4F382070087070BD3A0D002000002E40F0B50122002834D0002932D00424420600D005244B
:403E8000792342065B06D21800D0641C034600221EE00C2516466E43124D00277519AF72104F002ABB51696007D0661EB24209D10D4E86197606760E05E05E06760E8027B2
:403EC000BE1B00E080269B198919521C2E81D2B2A242DED303480549006B002288611046F0BD0000F813002079020000440D002018B50020694608700A48006900280ED0D9
:403F0000132149014018047E684604704F21C900054800F059F8A04201D0012018BD002018BD0000440D00207C110020074900200C2242435218927A012A05D0401CC0B21D
:403F40000628F5D30020704701207047F8130020F8B50E000446154609D0194F19497868A04202D94018A04201D38D4201D90120F8BD31462046FEF723FD00281ED02A46CC
:403F800031462046FEF72BFDE8B200210C224A43D21913895568EE18A6420BD90126641B1B1B9672834209DA1469C01A044AC0B220329676491CC9B20629E7D30020F8BDDC
:403FC000F813002079020000034610B50020024604E09C5C2018521CC0B292B28A42F8D310BD000070B500F05FF8084C064A216907480D46FEF7F3FC05492846FFF736FF02
:40400000FFF776FF207070BD79020000440D00207C110020002070470020054A002902D0012902D002E0906000E0D06000207047440D002070B5084C154608460549E2689E
:4040400089182A46FEF7CBFCE0684019E06028B270BD00007C110020440D00203EB50A226946FFF7E7FF044606480A2200686946FEF7A6FC002802D00020C0433EBD2046D3
:404080003EBD0000480D0020002802D0044A914201D2FF20704703494A6108610020704779020000440D0020024800218160C16070470000440D002070B5074C15460548F4
:4040C000A26880182A46FFF743FFA0684019A06028B270BD7C110020440D002010B503490A220968FFF7E8FF10BD0000480D002010B50F4A002313600E4A13600E4B1860D3
:404100000E4801600E49012008600E490860000290600E490C4808600D4914300860FF381538506000F0BCF800F0CAF9002010BD780D0020600D00208C0D0020900D002002
:404140007C0D00206C0D002040150020700D0020840D0020014610B50020002910D0094B1A689C685118A14209D25868196080188A0704D08A07920F891A091D196010BD8D
:40418000002010BD600D0020F8B50024164E671E321F3D463168136806E01422624310328A58521C1BD0641C9C42F6D36A1C14D02C461422544322460C3288500C2148439F
:4041C000FFF7C8FF3168002808510AD031680020103408517068401C70602846F8BD2546E4E73846F8BD0000700D0020F3B50026F64381B000281BDB1E490968884217D8A4
:404200000299002914D01B4F142204463F1D54432546396810354859401C09D0FEF726F938682F1F4159C359994203DBFEF716F93046FEBD214608310091465801590C20D7
:40424000704308180C220299FEF7C9FB0948761C001D0068C159B14200D100260549009A091D865008684159491C4151FEF7F6F80020FEBD6C0D0020002803DB074909687A
:40428000884202D90020C043704704491422091D0968504310300858704700006C0D0020F0B500200D4A451E0346171F50600FE014260146714314680E1DA3510C461668A5
:4042C000083433511668083435511468401C635039688842ECD30020F0BD0000700D0020F3B50026F64381B0002841DB2349096888423DD8029900293AD0204F14220446AA
:404300003F1D54432546396810354859401C2FD0FEF7ACF83868415900292BD0211D009146580C21005971430F46C1190C220298FEF755FB11480021001D0068761C005979
:404340000C34C0190160416081600C48001D00680159B14200D100260849009A091D865008684159491E4151FEF778F80020FEBD3046FEBDFEF772F8FAE700006C0D0020F0
:40438000FEB504460D4600201E49089E0860471E009001900290002C11D0486885420ED2002A0CD0002E0AD0642E08D808460C3001681C2068430C18207A002801D038460D
:4043C000FEBD0120226020721846FFF7DDFE6060401C13D06681A6810A4827610C3067610179A94200D205710021684601810A462846029B00F040F82846FEBD0020207257
:40440000DDE70000780D002038B50124009400F039F838BDFEB50027164EFF433D4600240EE01C20316860430818017A002906D04068FFF721FF002801D0254603E0641CAB
:404440003079A042EDDA681C12D01C2130684D434419FEF70BF869466068FFF741FF0546FDF7FCFF002DD9D1216868468847D5E7FEBD0000840D002038B50024009400F049
:4044800001F838BD1FB500220C49541E0A60002811DB496888420ED808491C220C31096850430818406801A9FFF7A0FE401C02D0002004B010BD2046FBE70000780D0020E0
:4044C000F0B50021114A4D1E174611710C3F0B46BD6016E008461C2460431668041D355114680646235014680836A3551468361DA353044616680A34335318301468491CE5
:40450000255078688142E5D30020F0BD840D002038B500210091002811DB0F49097888420DDA0D4D04010C3529680859002807D0201D0818694600F06FF9002801D00020E2
:4045400038BDFDF793FF28680F34015D491E0155FDF784FF009838BD940D0020F7B582B0002502986E1E06602E48D21C024017462D4A2C4610460C380178106805E02301FE
:40458000C358002B0FD0641CE4B28C42F7D3711C28D03401211D40180191039900F02AF900281FD101E02646F1E71F48016820460C300F521C480399026820460E30115414
:4045C00019480399026820460F3011540398784300F0A0F8144900280968085102D00024009011E001251AE00F48016801980818009900F02CF9002801D0012502E00098C6
:40460000C0190090641CE4B203988442ECD3002D05D10298066004480179491C0171284605B0F0BDFCFF0000A00D0020F8B50D4600216A468C461180002839DB2349097846
:40464000884235DA214B04010C3319680A59002A2ED020460C300B5A801C0E5C184670438018954224D3854222D2002006E007465F43BF18AF4206D0401CC0B2B042F6D34A
:404680006046002814D0114E271DC8190C366A46294600F006F900280AD168460088012808D030682946C01900F0D1F8002803D00120F8BD0020F8BDFDF7D8FE30680F3456
:4046C000015D491C0155FDF7C9FEF3E7940D0020F8B50F46002400F031F8002817D10C4900220B460C334A600EE021011D680E466A501D680C36AA53B61C1D680F31AA554E
:404700001D68641C6A54E4B2BC42EED31A71F8BD940D002000280BD0C01C074A81085068890053884118994203D89368516018187047002070470000940D0020F8B5064658
:4047400000200F4D009029700C0121466846FEF7F7FB00280CD129460C3100980860301B001F84B221466846FEF7EAFB002801D0FF20F8BD6C800098A8600020F8BD00001D
:40478000940D0020F8B5002827DB19490978884223DA174C05010C342168485900281CD028460C30085A009028460E300E5C401C0E5420682F1DC01900F064F800280CD162
:4047C0002068002445590EE0094829460C300068C01900F03CF8002801D00120F8BD00982D18641CE4B2B442EED30020F8BD0000940D002030B50D4604000BD0A800FFF75C
:4048000089FF6060002805D000202570C0436080002030BD012030BD70B50D46040005D0002D03D00220205E002801DA012070BDFDF71CFE0221615E6068890040582860DD
:404840006088401E6080FDF709FE002070BD70B50D46040007D0002D05D002212078615E401E814201DB012070BDFDF7FFFD6088401C00B26080616880000D50FDF7EEFD65
:40488000002070BD10B5040009D0227800216068FEF7AEF80020C0436080002010BD012010BDF0B500231D46002802D00224045F0AE00120F0BD46689F00F6598E4201D169
:4048C000012503E05B1CDBB29C42F4DA15700020F0BD00000148007870470000A80D00207CB505460024FEF7BFF8A8796946087000A8062229460130FEF771F8002168462F
:4049000004F0A2FF0C2806D0072806D01F2806D0122806D006E0022404E0042402E0272400E0012420467CBD01480121417270477816002010B502280BD0032802D0042847
:4049400009D102E000F07EF905E000F029FAFF2801D100F039FAFFF7E1F9FFF7EDF910BD10B500F061FAFFF7D9F9FFF7E5F910BD70B504460025FEF777F8002C06D0A079FB
:40498000012803D8214602F0CFFD00E00125284670BD01460120002902D05020088000207047000001460120002905D003485422007850430880002070470000AA0D002093
:4049C00010B502460D49FE204870032410460DF0D3FE002810D10DF077FE00280CD105F015FD002808D100F02FFC002804D105F0D1F9002800D10024204610BDA80D0020AF
:404A000002480021018280210180704700102E4070B50025044600280ED0A07901280BD8FEF722F8A0790028204602D003F058F903E003F02DF900E00125284670BD000009
:404A4000014610B50120002904D006220248FDF7C6FF002010BD0000B40D002001460120002903D0087802490870002070470000AA0D002010B5FFF751F9012801D1FFF7C8
:404A800053F910BD0148007A704700007816002038B504460120002C20D0617801291DD800290BD0FF25E535FDF7DEFF0C4828180088C0B22070072803D00EE0FF25CD3502
:404AC000F2E70020694608706846FFF749F969460878012801D108202070002038BD000000102E40014A002192681047A80D002008B500226B461A7026280CD0094A3428B6
:404B000052680BD0352805D1900703D50021352005F058FD08BD19462620F9E7D007F9D03420F5E7A80D0020014908727047000078160020F8B504460120002C26D0617853
:404B4000012902D92278092A20D8002905D0FF25E5352078092803D004E0FF25CD35F8E708202070FDF780FF2078114F114E08280DD00020FFF736F970780128207810D04D
:404B80000D4969180880FE2070700020F8BD0120FFF728F90720B8810549203188800120F2E7B8810248217820308180EBE70000C0112E40A80D002000102E4070B50E4640
:404BC000050001D0002400E00C4C002C11D0E28A500609D5D107C90F022003F01FF9E08A40218843E08204E0D107C90F012003F015F93146284602F0F3FD70BDD81500204A
:404C0000F8B50546002004460D4E009013E022466946284601F0EEF80098002801D00DF08DFDA878214602F0BDFBA878214602F0ABFB641CE4B2308AA042E8D8F8BD000049
:404C4000A4160020F8B54E4CFFF768F8012847D14C480078002843D002F04AFD00283FD004F094FA00283BD0474E7078C00703D000F01CFD012833D0307E00287DD17078B8
:404C8000002500285BD0000706D540488089070B00F02EF9384370D13B484178684604F0BBF821793A4CA2788918C9B2814262D802F01EFD002860D0344860300789324EBF
:404CC000203602F05FFB6846008802F089FB02F025FC30490988884203D10120FFF75CF84BE02D49012008702748807B00281DD0002F1BD04036F07E002817D1234860307E
:404D0000008821494000C031498981420AD26078002807D103F0B0F82049088A03221202104308822078002800D0257002F08EFB0120FFF72BF800F025FC174C15E002F026
:404D4000D7FC002819D0102402F0E8FB214602F0D1FA02F045FB104C0120207002F076FB0020FFF713F800F00DFC20780128B4D1FEF7A0FF25700020F8BDFF20F8BD00004E
:404D8000B0150020380D0020B8150020A0102E40CE0D0020E00D0020BA0D0020E0112E4010B50848FF244078002809D102F0A0FC012805D1FEF78CFE0720FEF7EDFF002426
:404DC000204610BDB815002038B5FEF7A7FF012801D0002038BD02F08BFC00280AD0114C6078C00703D000F061FC012802D0207E002801D0FF2038BD617800290FD0684630
:404E000004F00AF8022806D96846008802F0E8FA012002F025FB0320FEF7BEFFD9E70020F7E70000B815002038B51E4CFEF776FF042813D0052811D0062812D003282AD0A3
:404E400007280AD100206946087002460120FEF75DFEFEF763FF0128FBD138BD00F0B2FB38BD02F015FB00F0ADFB02F091FB8007800F0228F4D10C4841880029F0D05B21B6
:404E8000095D0029ECD101210170A07D0140022002F0C4FF38BD02F0FFFA0120FEF77CFF38BD0000D8150020CE0D0020F8B50646002403F021F80546304603F037F803461B
:404EC0000A480021068A0DE001228A401046174628401F40002803D0002F01D1224394B2491CC9B28E42EFD82046F8BDA416002070B500252C460A4E03E0002C01D0002034
:404F000000E030460079002803D02046FFF7CEFF0543641C2406240EEFD0284670BD0000D81500201CB50020694648706846FFF7AFFD01AA69460A20FEF7E8FD694604201A
:404F400008561CBD70B50D4601F03AFB04000BD02079002808D0FDF787FDE178A0782A4602F0C4FC002070BD022070BD0148007870470000B01500204030C07E002800D03A
:404F80000120704700B500F001F800BD902148430749084A40186030417F491CC9B24177D289914201D300214177C8B270470000B8150020A416002013B501F001FB040014
:404FC0000BD001F09EFE002807D0214601AA0A310620FEF79BFD00201CBD02201CBD000010B50C4601F0ECFA00280AD001F089FE002806D0224604490A20FEF787FD002078
:4050000010BD022010BD000099150020F3B581B0074601460026029802F066FF0446002F01D0002500E0154D002D21D0284601F0FDFA032C04D13946029802F0B1FF064632
:405040003846029902F0A0F9032C06D0002C10D00121384601F0F0FB03E03146384603F0A5F9284602F07EF80221284602F094F8FEBD3846029902F087F9FEBDD8150020A3
:4050800010B5044600F066FA002804D103F058FE002801D00C2010BD2078611C02F028FDFF2801D01F2010BD02F06EFDFF280AD02178621C02F0F0F8044821780068026B20
:4050C000601C904710BD072010BD0000F40D002010B503F035FE002801D00C2010BD02F0E9FC03480068C06A8047002010BD0000F40D002070B50D46044610210DF05EFACD
:405100001021601806460DF059FA334610221946204603F043FE102130460DF04FFA02202870204604F06CFD70BD0000F8B504464078217802028006870FE0781143A678BD
:4051400009050002090D0643084601F039FA00210546F2B2002812D0002C10D0022F0ED0032F0CD0002A0AD00279092A07D0002A05D0134A5A23527E1B5C9A4207D82889F6
:40518000002104F072FC20460DF0D8FAFF21002914D10C48224600682946436930469847C0B2FF280AD128464030817EF2B2491C8176FF232146284600F0E3F8F8BD0000AD
:4051C00070150020100E00200020704710B5044603F0B6FD002801D00C2010BD2078611C02F086FCFF2808D002F0BEFB044821780068426B601C904710BD1F2010BD0000F5
:40520000F40D002010B500F06BF904F0C3FD002010BD10B5044600786178E2780843A17811430843217908436179084305D003F079FD002803D00C2010BD122010BD204635
:4052400002F04EFD002010BD10B5FDF733F902F075FE044803F0D8FE02F090FB012000F003F810BD80150020F1B586B003A8009005A8019028489F22817A11408172684627
:40528000FDF70CFC002845D169460989C90705D0224806990068C2686846904769460989890706D5002835D11D480068816A0698884700282ED11B4E002575707573757147
:4052C000F575357675767575B570F570B5713746F5730120D03738731F20F880FF2130467972A0300176457600F0DCFA00242046069901F0B1FC002803D1641C2406240EBD
:40530000F5D0FD720749BD72B573C0310D704D704D600D7207B0F0BD70150020100E0020F40D0020B815002070B505460E46084602F0E2FD0446304602F0F8FD0121A94051
:405340000A46224001400A4301D0012070BD002070BD10B50446084602F0E8FD0121A140014201D0012010BD002010BD10B5FEF7D5FC032804D102F08FF80120FEF70CFD38
:4053800010BDFEB51C4616460F46054601F0EAFEA878FFF7F7FD02460190334639460094284600F00DF8002808D1A8780199FFF705FCFF2C02D138460DF0C0F9FEBD0000C5
:4053C000FFB585B005460E980C46FF2810D02B49C00009680A5840180179C0795278814201D9012601E09006860F6846038108E06078A1788006860FE0780002014368465C
:405400000181284601F088FC070007D021462846079A00F083FC384609B0F0BD304600F031FD04AE0346039002AA29460096204600F0BDFB3C20405D002818D0284601F017
:405440006BFC012813D0684600890096C0B20190A878231DFF22079902F076F968460089039BC2B2A878079902F0B6FCD3E7684600890021C0B20091E9E700000C0E00209B
:40548000F8B5002600253046FFF710FD07001DD090201149704340186030447F12E0601CFDF772F9CCB23846E040C007C00F07D02146304601F05EFF21463046FFF7A6FD28
:4054C0006D1CEDB20548018AA942E8D8761C3606360ED7D0F8BD0000B8150020A416002010B502F04BFA0020FFF7BEFE0DF0BCF9002010BDF8B5002400F0D2F80123012887
:4055000000D10124104F00203E4620360425082203E0002801D0002100E031460979002907D001290BD002290BD0114681402143CCB2401C0006000EEBD07C70F8BD1C43C3
:40554000F7E72C43F5E70000B815002010B5FFF7D1FF10BD10B5044604F06EFD002802D1601C00F001F810BD1CB500240094062269460194FDF724FA002800D11224204686
:405580001CBD000070B50E4CFCF75BFE0546FEF7C5FB062802D02078012803D02846FCF754FE70BDFCF7EAF92846FCF74EFEFEF7B5FB0628F5D020780028E5D170BD000015
:4055C000BA0D002010B5FCF73CFE0446FEF7A6FB012809D0FEF7A2FB022805D0FCF7CEF92046FCF732FEEEE72046FCF72EFE10BD10B50B4681791943817103D08078114675
:4056000002F0B8FB10BD10B582798A43827102D1807802F0C3FB10BD30B50C4C0220A28A0B4B9978002901D0022906D11D785B78EB18282B01D9032002E0032900D1012087
:405640005105490DC0020143A18230BDC0112E40C40D002000B500F029F8002807D0012805D0032801D0042801D0002000BD012000BD014600B50020C90701D000F010F80C
:4056800000BD014600B50020C90701D000F008F800BD00000148006870470000BC0D002001480088000A704720102E400448008B410501D5042070474007800F70470000E7
:4056C00000102E400148406870470000BC0D002038B50446000610D5FFF7E8FF01280CD1684601F0E9FE6846007800F01BFB012001F0A0FD0220FFF729FF600708D5074862
:405700000179012904D1002101712620FFF7F0F90348006801692046884738BDC80D0020F40D002010B501460A4A007800241070FFF7B6FF0128084603D002F03DFA2046DB
:4057400010BD00F0E7F80400F9D1034801210170F5E70000C40D00207816002070B50446FFF79EFF002801D00C2070BDA27B01211F48002A827801D00A4301E0520852009D
:4057800082706279012A14D0C17849084900C170184D2868016820468847207901280CD06188208803F07EF82080207904280FD015E0C2780A43C270EAE72868C168E01D65
:4057C0008847E01D02F078FA0B48808C208006E02868C168E01D8847E01D02F06DFA074920798870204602F0F5F9002070BD0000B8150020F40D002070150020C40D0020A1
:4058000008B50178FFF74CFF814201D10C2008BD002914D0072069460870FFF71BFF012807D10121684600F0D5F8012801D0092008BDFFF7F1FE02F001FA012011E0FFF7B0
:4058400009FF012806D1684601F036FE6846007800F09CFA02F0E8F9FFF722FF0028FBD10220FFF773FE002008BD000010B501460A4A007800245070FFF712FF012808461B
:4058800003D002F057FA204610BD00F05DF80400F9D1034801214170F5E70000C40D00207816002038B568460CF0DEFE002801D01F2038BD01210098C90201804180002567
:4058C00005714571857107214173857302F082F9009C202200212046FDF78AF825702A460021601CFDF784F8204602F065F9204602F020FA00980CF021FF062200210448E7
:40590000FDF776F802480C388560002038BD0000C80D0020F8B504460025684600950CF0A3FE002801D007250AE0064E009830602278611C401CFDF752F8316820780870A7
:405940002846F8BDBC0D0020F8B504460025684600950CF089FE002801D007250AE0064E009870602278611C401CFDF738F87168207808702846F8BDBC0D00200346084849
:4059800000B5834209D8184600F01AFE002804D00089984201D1012000BD002000BD0000FF0E0000074A9179491C8906890E917138220A4092014907090E114308430249BD
:4059C00008407047B8150020FF0E0000C006C00E70470000F8B507460E4600240D4803E0002C01D0002500E005462979002905D0641C2406240EF3D00020F8BD00212046D1
:405A000001F02AF92E712046FFF7CCFF28813C700120F8BDD815002010B503F0F3F90222002100F003F801F055FF10BD10B5094B40074907000F090F185A595A4018504387
:405A4000C0086421FCF7A0FE002800D1012080B210BD00000C4B0100F7B53D20405C88B015460C46002802D02878042802D200200BB0F0BD6946087200262046FFF77CFA0A
:405A8000012800D00126204603A938300191009023460327A17E34333246206A03F0CEFA02A8089900900B46019120463A4603A9243003F053F902466846007A2870204603
:405AC00001F0B6F81046D3E7FFB587B00C4605461078694608723D20005D1746002826D000262046FFF748FA012800D00126204603A93830019100902346A17E34333246A2
:405B0000206A03F09BFA02A80090291D019120462B1D03A924300A9A03F020F902006846007A388002D1204601F082F810460BB0F0BDF0B505463C20405C89B016460C46D0
:405B400000280CD0307869460873002806D000272046FFF711FA012803D003E01F2009B0F0BD012703200890204604A93830019100902346E17E34333A46E06903F05EFA7C
:405B80006846007B03A928180290009120462B46019504A92430089A03F014F902466846007B3070204601F04DF81046D7E7FFB505463C20405C89B016460C46002810D0F6
:405BC000084601F0A9F801280BD0308869468883002809D000272046FFF7CEF9012805D005E000200DB0F0BD0220FBE70127204603A93830019100902346E17E34333A4620
:405C0000E06903F01BFA291D2B1D07A8129A6D4607C5204603A924300C9A03F0D3F802466846808B3080204601F00CF81046D9E770B50D460446FFF79FF901280AD0E87A0A
:405C4000A97A00020143A07801F030FD012808D0002070BD00222421204602F075FD242070BD28214C200155204600F0B1FB282070BD0000002801D0002000E0034840305F
:405C8000C07F012800D0002070470000D81500200146002049070ED50021084B03E0002901D0002200E01A461279022A04D0491C0906090EF3D0704701207047D815002006
:405CC0000146002049070ED50021084B03E0002901D0002200E01A461279022A04D0491C0906090EF3D0704701207047D815002010B5044680346068002803D00CF032FD31
:405D00000020606010BD4030417070474030817070474030017070470171704792001018C166704770B53C2501F09CF9040004D020460021433001F059FCFF222946204653
:405D400000F0E8FB002C02D0A07801F00DF970BD10B5002801D0002000E00348002802D0008903F0C9FE10BDD815002010B5002801D0002000E00448002804D00179072946
:405D800001D100F047F810BDD815002010B501F069F9002802D0807801F0E6F810BD00207047000070B50546008A00281ED01049F122897A1140C90618D5294640314A8A4B
:405DC000098A521C4A4392B2D10800D10121540801E0621A94B2A042FBD9FEF77BFD012804D1298AA878224601F036FD70BD00007015002010B50023054C0B60248A94428C
:405E000004D992001018C26E0A60C36610BD0000A416002038B5044600200090A079002814D14020015D052901D00E290ED168460CF02AFC002809D12046009902F062FC60
:405E400003481021C28A2046FFF7D2FB38BD00007015002010B50B4604460146184602F0D3F8002802D020460CF072FC10BD13B5044601AA11460620FDF748FE6846818813
:405E800061811CBD002800D10220704770470000F8B504462346401D543300909A1EA078911E01F025FB25464035A88A298A8000FCF76AFC401E81B2688A884203D9698288
:405EC000A07801F0E5FF698A8C20015120460021433001F08BFB27480088E88102F092FFE989891C8AB26179FFF7A0FD01F0F2FC02F088FF2A8A6179FFF798FD074601F001
:405F0000DDFC688A002806D01B49088A032212021043088202E0002001F0AEFF1648803801886E8A002E0CD0304648431349FCF715FD0004000C01D0401C80B21049488059
:405F400002E00F4800214180288A704381B2A07801F0FEFEFF2228374932B9B21346204602F0A4FCE98AA07801F072FEA07801F02BFAF8BD80102E40E0112E407102000013
:405F8000CE0D00207FB504468034616805460E46183108226846FCF722FD31462031082202A8FCF71CFD102168460CF007FB6068102108300CF002FB60682B4608302433A2
:405FC0001022694602F0EAFE7FBD10B504460821FFF719FB10212046FFF715FB207905281FD006281DD008281AD12189002003F0FBFC072020712046FEF7BEFF01462046AF
:406000004030012913D00E21017000210176204600F0BCFF2046FFF76BFE2046FFF7C2FE10BD20890122002103F0C2FCE1E70521EAE70000FFB581B01F4604460821FFF7DC
:40604000E2FA10212046FFF7DEFA2079082803D0092804D0042203E00422012501E009220025204600F044FE264600204036307022712046FFF73CFE0398002D02D0012892
:4060800008D00BE001280AD120890022029903F08FFC04E02189029803F0A6FC012700203076012F04D0204600F070FF05B0F0BD02983073204602F073FB054605480121A2
:4060C000C28A2046FFF794FA002DEFD109202071ECE700007015002070B50C460546FEF74BFF012809D108212846FFF78CFA0023012221462846FFF79DFF70BD10B504464B
:4061000000F0F6FD2046FFF7F3FD00214034217010BD70B505461A24FEF72EFF012809D108212846FFF76FFA0023012221462846FFF780FF70BD0000F8B504460020009010
:406140000E4668460CF0A0FA002801D00D20F8BD8420005908212030009D00F02CFA20460421383000F027FA002E02D1204600F0FBFD2946204602F054FA0E480821C28A50
:406180002046FFF735FA204600F071FF25464035002808D0204600F023F8002801D0092028700020F8BD08202870204600F0DAFFF7E7000070150020014610B540310A466F
:4061C0000978082906D0092907D00A2901D100F091F810BD0B20107010BD00F001F810BD70B50446007925464035052805D0062803D008280FD00C2070BD032206212046B0
:4062000002F0A2FA0D480821C28A2046FFF7F0F91120287010E006202873204602F0C0FA0646AA8A0A20424301212046FFF7E0F9002E01D109202071002070BD7015002003
:4062400038B504460020009068460CF01DFA002801D00D2038BD2046009D00F0C3F908202071204600F080FD2946204602F00CFA00213D2001550F2040210855204600F03C
:4062800071FF002038BD00B5024600F031FD10214032117000BD10B50446FEF76DFE012809D04020005D112805D100231A4606212046FFF7BFFE10BD10B5FFF786FE10BD84
:4062C00038B504460021684600910CF0DDF900280CD12046009902F058FA05480821C28A2046FFF785F90D204034207038BD00007015002038B504460021684600910CF0F3
:40630000C3F9002801D00D2038BD2046009902F031FA05480821C28A2046FFF769F90C2040342070002038BD7015002000787047F8B5002569460D70002801D0002400E0D6
:406340001F4C002C18D0204600F0DBFC002813D0207903280BD005280CD026464036B18AA07801F0FFFCB078012806D01DE0042020711DE006202071F8BD0021204601F0E3
:4063800060FE274680373868002802D00CF0EAF93D600020B0702079072802D12046FFF701FD0221204600F0F7FE20790428E3D1207A694608703420FEF79AFBF8BD0000D5
:4063C000D815002010B54C22115400F052F810BD10B50446FF21FFF716F909202071A07801F0E6FC10BD000038B5FF216A461180002801D0002400E00B4C002C12D0114644
:406400000620FDF783FB684601882046FFF72FFD204600F087FC002804D104480068C1692046884738BD0000D8150020100E002010B504468079002809D022214C200155CE
:40644000FF212046FFF7DFF8204600F012F810BD10B5037902464032002B03D01173092B02D003E0002100E02221117300F001F810BDFEB50446008900270090278120793A
:4064800026464036002817D0012815D002280AD112E002AA01A9204601F0A4FD002807D101980CF055F9204601F0C4FD0028F0D02046FEF7A5FBB7762546803528680028B5
:4064C00002D00CF04FF92F606868002802D00CF049F96F60317B002919D0009800F064F8A078002100F092FF2046FFF795FAA07801F0C6F8A07800F037FDFF212046FFF75A
:4065000082F80B20FFF722F800F068FCFEBD1F213173E2E7F8B517460E46054602F06EFC04003CD020460C3001F050F82046062200211830FCF75CFA2046062200211230C9
:40654000FCF756FA1648224600683946436A28469847074626702846FEF70EFD012148406070002D10D02889608028464030C1782171002E0FD169796171018AE180418AA6
:406580002181808A608106E00648008BC005C00F2071002060803946204603F0A8F9F8BDF40D002000102E400A4610B50146002003F0BAFA10BD10B50BF0DCFD10BD000047
:4065C00000B50146FFF702FA002801D0002000E00348002802D002898A4200D0002000BDD815002038B5044680346068002806D168460CF059F8002801D100986060606897
:4066000038BD000010B5014600F086FB0128887802D0FEF7BBFC10BD90214843024940186030007F10BD0000B815002070B5054604464035A87F012811D1A1789020084A50
:40664000484380186030067F3046FEF76DFE002805D10220A877A078314601F0CBF870BDB815002010B50C4CA07A002813D0FEF707FF0A48027F417F408B00F0B7FB01280A
:4066800009D10020A07200F02DFF05498989090B01D000F03BFA10BD88160020B8150020A0102E4070477047490510B5490F0B00FCF7A8FB060704080C0C0F073E21FFF79C
:4066C00081FE10BD0821FFF7C3FE10BDFFF7D1FE10BDFFF7ADFE10BDF8B507460025002D01D0002600E0204E00F0A6FE3046403044890021418100F0C3FE304600F001FBD3
:4067000001282BD1A00702D52846FFF711FEE00602D52846FFF768FEA00601D5FEF7B0FE600601D500F014FB200602D5284600F01DF8600702D5284600F02CFA380402D51D
:406740002846FFF713FB780402D52846FFF700FBE00703D021463046FFF7A6FF6D1C2D062D0EBCD0F8BD0000D8150020F8B5002801D0002400E0284C002C4BD02546403539
:40678000A878012846D1FF278820493700593E46002805D02149897A890601D5878AC68A2046FEF7E9FB012834D002F02BFB2A8A6179FFF73BF9009001F080F800983346D8
:4067C000283081B23A46204602F070F8E98AA07801F03EFA12480188688A124E002810D048431149FCF7BAF80004000C01D0401C80B27080A07DC107C90F002001F00EFB1D
:4068000001E000207080288A698A484381B2A07801F09EFAF8BD0000D81500207015002060112E40CE0D0020710200000149096809680847100E002070B50D460026194AF5
:406840000146002801D0002401E014462034002C26D0204600F060FA01280AD19020484380186030007FFEF75FFD002801D101F017FF0D48006881692046884700280CD03B
:4068800020464030817EA94202D3491B817600E086762089294603F0E8F8204600F062FC70BD0000B8150020100E002070B503460088FFF785FE040013D000F022FA00288B
:4068C0000FD02079092819D02546997840352973204601F065FF0646A878012803D0AA8A02E0022070BDEA880A20424301212046FEF77EFE002E01D109202071002070BDD0
:406900000EB5002217216B460292198100905A810120029B00990BF0C5FF0EBDF8B518480024807A002822D1164E0025B089000B22E0204600F074FE1249A0394018078817
:406940002A462146384600F051FA012810D00E480122478305770A4944778A72002D01D0002000E02030002801D000F0FBFBF8BDB089000B641CE4B20028DAD1F8BD0000F1
:4069800088160020A0102E40B815002010B50088FFF716FE002809D0014640310C460978082905D00B2903D00C2010BD022010BDFFF716FC002801D009202070002010BD8F
:4069C00070B503460088FFF7FBFD040008D0254640352878082805D00B2803D00C2070BD022070BD8420005910220830991CFBF7F6FF2046FFF7C6FA2878082804D020467B
:406A0000FFF778FC002801D00A202870204600F0A9FB002070BD000010B50C46002121700088FFF7CDFD03000BD000F06AF9002807D00948F121807A0840C00603D4112036
:406A400010BD022010BD022020701A8A1889002103F086F8002010BD70150020F8B50F46002100910088FFF7ABFD040012D000F048F900280ED0E079410641D4617E02268C
:406A80004A07002A08DB8907402500291ADA2843E07135E00220F8BD02F0B0F90021017021894180A1898180217E4170E189C1803E7005460178134802F02CFD284602F0B8
:406AC000F3FF1DE0204600F02DF9012806D068460BF0DAFD002803D00720F8BD2A20F8BDE07900992843E071204601F083FE607E0421304360760448C28A2046FEF778FD9C
:406B00000020F8BD1D040000701500203EB500220F236C460292238100910190628169460EC900200BF0BEFE3EBD0000F8B50F46054600F097FA040025D003202071254646
:406B400000264035EE76E6702046FFF7A1F901F06BF80920FEF7FAFCA07800F07FFD0121204600F019FB2E706E70AE703A4600212046FFF7CFFC0649887B401C8873A0782F
:406B8000FFF754FEF8BD284601F012F9F8BD0000B815002010B5002801D0002000E0094800280DD0014640310A464978022901D100215170807DC107C90F002001F02EF93B
:406BC00010BD0000D815002070B503460D460088FFF7F6FC04000BD000F093F8002807D01248F121807A0840C00603D4112070BD022070BD20464030418A008A491C414325
:406C00000804C10C5888884201D2122070BD20822079072802D12046FFF7C4F8022028702089002102F0C4FF002070BD70150020016A491C016204D1817E491C4906490E0D
:406C400081767047C169491CC16104D1C17E491C4906490EC1767047F0B5074687B003A8009005A800260D460190002F01D0002400E01B4C002C05D06846FBF70FFF00284B
:406C800003D00BE0022007B0F0BD68460089C00704D1902200212046FBF7AAFE114829460068826820469047050016D1A77066762746267140373E70204600F019F82046BE
:406CC00001F0B4F9084820820848BE77807AF121084000D001202075E682E8B2D3E70000D8150020100E0020B80B000070150020002101628176C161C176203001774177E2
:406D000070470079002805D0012803D0022801D001207047002070474030807F002800D00120704740300078002807D0012805D0052803D00E2801D00120704700207047A6
:406D400010B5807801F0F2F8002800D0012010BD10B500F0C7FB03498989090B01D0FFF7D5FE10BDA0102E4070B5054604464035A87F002825D1FF206075A0789021154A97
:406D8000484380186030417F9023491CC9B24177A0785843104B8018DB896030994201D300214177A0789021484380186030467F0677A1783046FEF7B7FA002802D00120E5
:406DC000A87770BD0220A877A078314600F012FD70BD0000B8150020A41600200020401C0006000EFBD0002070470000F0B515468207920F85B0000A02926A469080002D68
:406E000001D0002400E0564C002C28D0084600F007FC07466846808800280BD00298012843D0022841D003280BD03D20005D012879D08FE04B48381801882046FFF717F8E7
:406E400088E00020029002A80BF0FEFB002807D03D20005D012802D12046FFF7E9FE7CE06846029E8388324600213846FCF742FD3C48381801882046FEF7F9FF284600F056
:406E8000B5FA01AA21463046FEF7E6FD002806D030460BF049FC3D204C21085531E0F5773146204601F02AFA57E0002000902089039068460BF0B8FB002802D0002005B02B
:406EC000F0BD6846009E8388321D00213846FCF711FD2448381801882046FEF7C8FF284600F084FA2046FFF70CFF002805D025464035287E002810D107E030460BF00AFC0B
:406F00002BE02046FFF764FA27E001AA21463046029BFEF7D9FD002806D030460BF0FAFB3D202873EDE712E00298FEF7AFFF0399317003990001090A01437170684680886E
:406F4000B070000AF0703046FFF7DAFC05E02046FFF76EFE284600F049FA0120AFE70000D815002000102E4010B5074A917B002901D0491E91730021FFF76EFE002801D0B2
:406F8000002010BD012010BDB8150020F8B5074606464037B87F00282DD0B078902100904843234945186035287F0099FEF7D1F901281ED0287F401CC4B21E48C089A0427E
:406FC00000D800240020B877FF276F772F77A87702460146009800F079FD717DFF2903D0304600F0E4FF777501F05AFB0025114F19E00320B877F8BD002000902246694638
:407000003046FEF7F7FE0099002904D0FF231A463046FEF7B6F9641CF889E4B2A04200D800246D1CEDB2F889A842E5D8F8BD0000B8150020A416002010B502460021084BFC
:4070400003E0002901D0002000E018460479944204D0491C0906090EF3D0002010BD0000D815002000B50120FFF7E6FF00BD10B5044601F0C3FE21890180803461684160EE
:4070800061682831816002F0C9FC10BDF7B50646087982B00C46092807D0A078F0770846FFF73AFE012806D010E030460BF050FB022005B0F0BDA1789020294A48438018BB
:4070C0006030007FFEF730F9012810D0A078FEF7D1FD01280BD037780121304601F08CFA25462035062F38D00B2F0FD107E06846027C21463046FEF7ADFE0D20D9E72046C3
:40710000FDF73AFF012801D1002028772046FFF779FA054604AA21463046FEF70AFD01205F2108556946097C002001910090A07833463A46294600F007FB69460A7CA07894
:407140000323294600F048FEA0782946FDF736FD30460BF0FDFA0020ABE70120D5E70000B815002010B502464032937F0021002B03D1927E002A00D00121064A927A002A4F
:4071800000D000210279092A00D10121807800F065FE10BD8816002070B50C460546FDF7EBFE00280BD1012C06D92879092806D02846FFF7C5FD0446002C02D004E0012499
:4071C00002E0A87DC007FAD1A87DC107C90F204600F024FE70BD0000012807D0082804D104480282034808300180704701488038FAE70000A0102E40014908817047000072
:4072000000102E4010B50446FF20F130012C01D1FF20D530002200F053FE044A108A044980B2A0430880108210BD000000102E40D20D0020034B198A034A89B2814311807F
